:020000020000FC
:1000000083C01895189518951895189518951895F2
:100010000AC018951895189518951895189518955B
:1000200018951895189511E004D124E5122F05D1E3
:1000300025E6122F02D12CEB122FFFD02EEB122F20
:10004000FCD02AE3122FF9D020E2122FF6D0C4D030
:100050000091600011D02CE2122FEFD000916100CE
:1000600036D027E2122FE9D023E4122FE6D024EF76
:100070002DBD24E22CBD18952F933F9320E030E056
:1000800007FF06C000950F932DE2122FD6D00F91D7
:1000900004360CF403C004563395FACF303029F0FF
:1000A0000F93232F122FC9D00F910A300CF403C0E5
:1000B0000A502395FACF0F93205D122FBED00F91D7
:1000C000005D202F122FB9D03F912F9108952F93CB
:1000D00020E004FD2A5F05FD235F06FD275E07FD86
:1000E0002E5C022F20E00A300CF403C00A50239546
:1000F000FACF0F93205D122FA0D00F91005D202F1B
:10010000122F9BD02F9108950FE50DBF04E00EBF75
:10011000E0E6F0E000270193F430E9F7E036D9F7A4
:10012000EE27FF27EEE1FF27EA95F083E9F700E0ED
:1001300007BB00E008BB00E004BB00E005BB00E03B
:1001400001BB00E002BBF1D059D0B6D013E371D0AF
:1001500012E36FD018E26DD011E06BD016E069D0D9
:100160001CE067D012E065D011E063D023E4122FC9
:1001700064D02FEB122F61D021E6122F5ED020E742
:10018000122F5BD02FEB122F58D02EE2122F55D00A
:10019000122F53D0122F51D01AD024EF2DBD24E2AC
:1001A0002CBD2DE02EBD24E029BF7894FFCFC4D014
:1001B00010E9C8D01CEAC6D010E0C4D0D6D008954B
:1001C000BBD010E9BFD01EEEBDD0CFD00895EFDF79
:1001D0007DD0F6DF89D00895AFD010E9B3D01AEA08
:1001E000B1D0AAD011E9AED0B4D013B11093600051
:1001F000B6D013B110936100B8D00895C098C198DB
:10020000C298B89AB99ABA9A4CD00895F89449D03D
:10021000C098C19AC29A50D006B30F93C2984CD0DE
:10022000C29A4AD0C29848D00F91007899F7789432
:100230000895F894EBDFC09803C0F894E7DFC09A04
:10024000C198C29A35D01F93107F08B30F700F93D7
:10025000012B08BB31D0C2982FD0C29A0F911F91A9
:100260001295107F012B08BB27D0C2981AD0789422
:100270000895F894CBDFC09803C0F894C7DFC09A04
:10028000C19AC29A19D016B3C298107F129514D091
:10029000C29A012F16B3C298107F102B1295789432
:1002A000089507B30F7007BB08B3006F08BB08952C
:1002B00007B3006F07BB089504E10A95F1F70895AD
:1002C0000F9308EC0A95F1F70F9108950F931F9380
:1002D0002F9300E818E321E0015010402040E0F7A0
:1002E0002F911F910F9108950F931F932F9300E06B
:1002F00015E32CE001501040204070F72F911F9122
:100300000F91089509E109B900E000BD00E00BB9C3
:1003100008E10AB906E800BD08955D9BFECF0CB95F
:1003200008955F9BFECF0CB108957F9370E071B983
:1003300070EC70B97F91089504EA06BF16B7107883
:10034000E9F3089513B904E806BF16B71078E9F386
:10035000089504EC06BF16B71078E9F3089504E891
:1003600006BF16B71078E9F3089504E906BF16B77B
:060370001071E9F308958D
:00000001FF
